:1000000000000420BD020000E5020000E70200003D
:10001000E9020000EB020000ED0200000000000019
:10002000000000000000000000000000EF020000DF
:10003000F102000000000000F3020000F5020000E1
:10004000F7020000F7020000B51B0000F7020000F5
:10005000F7020000F7020000F7020000151C000084
:1000600069210000F7020000F7020000F70200001B
:10007000F7020000F7020000F7020000F70200009C
:10008000F7020000F7020000F7020000F70200008C
:10009000F7020000F7020000F7020000F70200007C
:1000A000F7020000F7020000F7020000F70200006C
:1000B000F7020000F702000000000000000000004E
:1000C000F7020000F7020000F7020000F70200004C
:1000D000F7020000F7020000F7020000F70200003C
:1000E000F7020000F7020000F70200000000000025
:1000F00000000000F702000000000000F70200000E
:1001000000000000000000000000000000000000EF
:1001100000000000000000000000000000000000DF
:1001200000000000000000000000000000000000CF
:1001300000000000000000000000000000000000BF
:1001400000000000000000000000000000000000AF
:10015000000000000000000000000000000000009F
:10016000000000000000000000000000000000008F
:10017000000000000000000000000000000000007F
:10018000000000000000000000000000000000006F
:10019000000000000000000000000000000000005F
:1001A000000000000000000000000000000000004F
:1001B000000000000000000000000000000000003F
:1001C000000000000000000000000000000000002F
:1001D000000000000000000000000000000000001F
:1001E000000000000000000000000000000000000F
:1001F00000000000000000000000000000000000FF
:1002000010B5054C237833B9044B13B10448AFF350
:1002100000800123237010BD880000200000000032
:100220008C36000008B5034B1BB103490348AFF3FC
:10023000008008BD000000008C0000208C3600000B
:10024000A3F5803A704700BF174B002B08BF134B34
:100250009D46FFF7F5FF00218B460F461348144AD1
:10026000121A03F043F80E4B002B00D098470D4BA9
:10027000002B00D098470020002104000D000D48FD
:10028000002802D00C48AFF3008002F0FDFF2000F0
:10029000290002F063FE02F0E3FF00BF0000080047
:1002A0000000000000000000000004208800002082
:1002B0005807002000000000000000000649074A1F
:1002C000074B9B1A03DD043BC858D050FBDC02F0FF
:1002D00073FEFFF7B9FF0000FC36000000000020AD
:1002E00088000020FEE7FEE7FEE7FEE7FEE7FEE708
:1002F000FEE7FEE7FEE7FEE7F0B595B000241D46F9
:100300000E460846174601F083FA30462346082277
:10031000099505A91A9D08970D950A948DF82C400A
:100320000C9401F0D9FA9DF814308DF81140DDE9F4
:10033000061003F00302012ACDE9020128D0022AA7
:1003400004D0304601F068FA15B0F0BDBDF8165083
:10035000C3F3C2038DF81030C5F389150827082DA3
:100360002C4628BF08243B4622460EA9304601F001
:10037000B3FA2D1B214608AB02AA0EA8274400F0B1
:10038000D9FC002DEBD1304601F046FA15B0F0BD96
:10039000BDF81470059DC7F38312C3F3C2040EA900
:1003A0003046920008238DF81040C7F3831701F000
:1003B00093FAC5F3952508AB3A4628460EA9009353
:1003C00002AB00F03FFC304601F026FA15B0F0BD5C
:1003D000014B01221A707047E8000020704700BFEF
:1003E00000B583B0044B0093044A4023FFF784FF19
:1003F00003B05DF804FB00BF01040000A80000206A
:1004000038B50E480E4D03780E4CEB5C0025257078
:10041000D2B253B1043002F01BFC58B90A4B1B781E
:1004200013B12378002BFCD038BD0C3002F028F932
:100430000028F3D000F0FCFCF0E700BF0000002033
:1004400054070020E8000020A40000202DE970439C
:1004500019481A4A0378D35C88B02BB3043002F0F1
:100460003FFB174D0FCD6C460FC495E80F004FF0C2
:10047000EB7684E80F004FF006084FF0FF394FF09D
:10048000FF344FF0FF350C48069600226946CDE94F
:100490000089CDE9024501F0CFFA48B9094B0022A5
:1004A0001A7008B0BDE870830C3002F063F8D8E72A
:1004B00000F0BEFCF2E700BF00000020540700205F
:1004C00028330000A4000020F0B5154D0FCD89B0F1
:1004D0006C460FC495E80F004FF0EB7C84E80F00EA
:1004E00006264FF0FF374FF0FF344FF0FF350D4A2F
:1004F0000D48CDF818C06946CDE90067CDE9024541
:1005000001F09AFA20B9094B01221A7009B0F0BD26
:1005100000F08EFC054B01221A7009B0F0BD00BF3F
:1005200028330000D103000000000020A4000020B8
:1005300008B5FFF7C9FF0448042100F001FB034B95
:1005400001225A7108BD00BFD036000014000020FF
:10055000064B074810B500221A7001F00DF9044649
:1005600010B9044801F01CFA204610BDBC0100205F
:10057000E03600008033000099B10E4B0E495B1A43
:10058000DB0815D030B400220C4D02E0013293425A
:100590000BD035F822408442F8D151F8320030BCFB
:1005A0007047054951F830007047002030BC704753
:1005B00018467047D03600009036000088000020B2
:1005C000094B013903EBC00003290BD8DFE801F028
:1005D00004020806042070470220704740797047E3
:1005E0000079704700207047903600002DE9F043F5
:1005F000894CD4E901239A4285B060D00023C4F825
:100600001834BFF34F8FA568EAB2D31C04EB830103
:1006100014F82330580718D566680B7803F00303E5
:10062000012B42D0022B03D14B88023505EB9315E9
:10063000EAB2D4F81804D31C04EB830128B9AE4203
:1006400039D914F823305B07E7D404EB82026B1C22
:10065000D2680192DBB204EB830302F00302DB6891
:100660000293022A05F102062DD0012A00F08880AB
:10067000D4F810543DB12B6828469B689847EB6826
:100680001D68002DF7D16548654B6649C01AC00842
:10069000000440F0020000F0CBF8D4E90130C01AA9
:1006A00018BF012005B0BDE8F0830B880235C3F305
:1006B00083131D44BCE7A66005B0BDE8F0830020AD
:1006C00005B0BDE8F083BDF806305748C3F389187C
:1006D0004546502D28BF502565F38F1305F10801BD
:1006E000ADF8063001F04AF807460028C0D001F006
:1006F0008FF8002301A90822384601F0B9F8F34326
:10070000DBB20133B5EB830F4FEA8309F1B272D943
:10071000A5EB0905033104EB810108234A4638465D
:10072000EDB201F0A5F841492A4609F1080338461F
:1007300001F09EF808F1030806EB9806D4F8183487
:10074000002B65D1D4F8105465B1EB685A7928466E
:100750003946002A58D02B681B689847EB681D68FB
:10076000002DF2D1384601F057F8002000F0A8FB28
:10077000D4F8183403B9A660002000F0A9FB8CE778
:10078000BDF804302848C3F38312062A28BF062286
:10079000911C62F389138900ADF8043000F0EEFF7C
:1007A000074600283FF464AF01F032F80023082226
:1007B00001A9384601F05CF8BDF8043013F4707FED
:1007C000BCD06FF00108A8EB05080825F1B2033191
:1007D0002B46042204EB8101384601F049F8BDF8AC
:1007E0000420013608EB0603C2F383129A4205F196
:1007F0000405EBD8A2E703312A4604EB8101082364
:10080000384601F035F895E71D68002D9DD1A9E720
:10081000384601F001F840E7BC010020C036000076
:100820009036000068330000E0360000C801002068
:100830002DE9F04F5C4C87B0064600200F4600F0D3
:100840003FFBD4E9015303F580735B1B012B7DD87B
:1008500004F21C4804F5836A04F214491AE0BDF856
:100860000E30C3F389130333090C0BEB930B48468B
:10087000019100F071FB0199002839D04046C4F87D
:1008800008B000F03DFBD4E9013202F58072D21AC3
:10089000012A5CD80121404600F032FB504600F0AE
:1008A0004BFB484600F048FBA368DAB2D11C04EBCE
:1008B000810014F8211001F0040C490728D404EB3E
:1008C0008202591CD2680392C9B204EB810102F082
:1008D0000302012AC96803F1020B30D0022ABED0FC
:1008E00000214846019100F037FB01990028C5D14D
:1008F0004046C6E743880EEB9313DAB2D11C04EBF3
:10090000810014F8211001F0040CBCF1000FD6D0C6
:10091000017801F0030101290BD0022903F1020E35
:1009200002F10301E6D004EB8100BCF1000FEFD12E
:10093000C5E702880233C2F383121344DDE7BDF832
:100940000C30C3F38313090C9B4490E72B46DAB2B7
:10095000033202330521002044F82210636000F0C6
:10096000B7FA0021114800F0BDFA80F31000F10041
:100970006B1C01F03801DBB2EDB204EB830341F0F4
:1009800001010004033540EA164641EA8727DE608C
:1009900044F8257023781BB1FFF728FE0028FBD10F
:1009A00007B0BDE8F08F00BFBC010020D8050020D3
:1009B0002DE9F04F604C87B0064600200F46904668
:1009C00000F07EFAD4E9015303F580735B1B022B20
:1009D0007FD804F21C4904F5836B04F2144A1BE02F
:1009E000BDF80E20C2F389120332090C03EB920307
:1009F0005046CDE9003100F0AFFA019900283AD015
:100A0000009BA360484600F07BFAD4E9013202F56E
:100A10008072D21A022A5DD80121484600F070FA8D
:100A2000584600F089FA504600F086FAA368DAB218
:100A3000D11C04EB810014F8211001F0040C4907CB
:100A400029D404EB8202591CD2680392C9B204EB88
:100A5000810102F00302012AC96803F1020331D0C7
:100A6000022ABDD000215046CDE9003100F074FAD1
:100A700001990028C4D14846C5E743880EEB93137B
:100A8000DAB2D11C04EB810014F8211001F0040C3F
:100A9000BCF1000FD5D0017801F0030101290BD082
:100AA000022903F1020E02F10301E6D004EB8100FA
:100AB000BCF1000FEFD1C4E702880233C2F3831206
:100AC0001344DDE7BDF80C20C2F38312090C134474
:100AD0008EE72B46DAB2033203334521002044F877
:100AE0002210636000F0F4F9AB1CDBB204EB83036B
:100AF00000211248C3F80C8000F0F4F980F31000D4
:100B0000F1006B1C01F03801DBB2EDB204EB8303A2
:100B100041F041010004033540EA164641EA8727C7
:100B2000DE6044F8257023781BB1FFF75FFD0028D5
:100B3000FBD107B0BDE8F08FBC010020D805002034
:100B400030B4154DD5F810140446002071B10B4691
:100B500001E01B6853B1DB681A798242F9D1013098
:100B60000A28F3D14FF0FF3030BC7047E3681871AA
:100B7000D5F810344BB1DA68E36812681A60D5F81A
:100B80001034DB681C6030BC7047C5F81044E26864
:100B9000136030BC704700BFBC01002038B5084B63
:100BA000D3F8104401251D704CB1E3685D712368D2
:100BB00020465B689847E3681C68002CF5D138BD77
:100BC000BC01002030B5C38885B004460D461BBB70
:100BD000217A05291ED0627A82B9134AA08852F878
:100BE000212003920021FFF7C7FC039A0F49034617
:100BF000284605B0BDE8304000F022BAA088FFF7D3
:100C0000DFFC0B4B0B4953F82020284600F018FA64
:100C1000217AE2E705B030BD074A00920749084A49
:100C2000284600F00DFAD3E758340000B83300002E
:100C300034340000B4330000AC33000094330000BF
:100C40008C3300002DE9F04385B04FF0000C0C9C74
:100C5000814694F80C8084F80CC00E46174618465E
:100C600021461D46FFF7AEFF062F09D8DFE807F043
:100C7000042E343B444F1F004946204600F0E0F963
:100C80002B7A052B05D06B7A5BB92749204600F0FB
:100C9000D7F9204600F0C8F984F80C8005B0BDE80B
:100CA000F083224A2249204600F0CAF9EDE7D6E94E
:100CB0000413F2680393B3680291CDE90032494608
:100CC000D6E90023204600F0BBF9D9E7326849464F
:100CD000204600F0B5F9D3E7D6E90023494620467F
:100CE00000F0AEF9CCE7B3680093D6E9002349469B
:100CF000204600F0A5F9C3E7D6E90232019200933D
:100D0000D6E900234946204600F09AF9B8E7D6E92B
:100D10000321B3680291CDE900324946D6E90023A8
:100D2000204600F08DF9ABE7C4330000AC3300007F
:100D3000B4330000082900D970472DE9F04F9B46D5
:100D400083B000241B7B8BF80C400D4606465946A9
:100D5000104690460193DFF8D0902C4FFFF732FFFA
:100D600005E0325D013400F06BF9082C09D0A54292
:100D700039465846F5D84946013400F061F9082C47
:100D8000F5D12349DFF8A490224C234F584600F0B8
:100D900057F94FF0000A0DE0D15D11F0970F08BF31
:100DA0002E22214658460AF1010A00F049F9BAF10B
:100DB000080F10D0554505D916F80A207E2AEBD920
:100DC0002E22EEE7494658460AF1010A00F038F9AA
:100DD000BAF1080FEED198F80830052B02D098F838
:100DE000093063B90D49584600F02AF9584600F019
:100DF0001BF9019B8BF80C3003B0BDE8F08F084A5B
:100E00000849584600F01CF9ECE700BFC833000061
:100E1000D4330000D833000085350000C43300000F
:100E2000AC330000B4330000D0330000C033000006
:100E300000B585B00346002101AA44F20100CDE9C6
:100E40000111039300F004F805B05DF804FB00BF46
:100E500010B572B6FFF7A2FEFFF7C8FB0028FBD162
:100E6000104B114C1149E41AE408240444F0010029
:100E7000FFF7DEFC0E4B1B68DB0700D500BE0D49FB
:100E800044F00200FFF7D4FCBFF34F8F0A490B4B2D
:100E9000CA6802F4E0621343CB60BFF34F8F00BF18
:100EA000FDE700BF90360000C03600006C34000043
:100EB000F0ED00E07834000000ED00E00400FA05F9
:100EC00072B6024A1368013313607047740600203B
:100ED000034A1368013B136003B962B6704700BF51
:100EE0007406002010B4034653E8000F0A4643E896
:100EF000002494F0000FF7D15DF8044B704700BF59
:100F000010B4034653E8002F02EB010043E800044D
:100F100094F0000FF6D15DF8044B704710B403460F
:100F200053E8002FA2EB010043E8000494F0000F07
:100F3000F6D15DF8044B704710B40346012253E824
:100F4000001F41EA020043E8000494F0000FF6D1CC
:100F50005DF8044B704700BF10B40346002253E80D
:100F6000000F00EA020143E8001494F0000FF6D1EC
:100F70005DF8044B704700BFB8B130B4D0E901123E
:100F8000521A0468D2B2531E2160DBB242B101682A
:100F90000A685C1E551C0D601370E3B2FF2BF6D17E
:100FA00003680020187130BC70470E20704700BFE6
:100FB00038B504460020FFF783FFD4E900311A68F2
:100FC0008A4215D9511E19602168A3680868258ACC
:100FD00012F8012CE4681B1A0879DBB2984205FB71
:100FE000024400D20B710020FFF772FF204638BD8B
:100FF00000240020FFF76CFF204638BD38B50546B9
:1010000000200C46FFF75CFF2A681368591C11602A
:10101000E9682A8A641AB4FBF2F41C70BDE838400F
:101020000020FFF755BF00BF826842B110B50446EB
:1010300043690168006998470023A36010BD7047A9
:101040000EB400B582B0039921B104AB01AA01939B
:1010500000F0ACF802B05DF804EB03B0704700BFDD
:101060002DE9F04F164683B0B142DDE90C920F46F0
:1010700005469A46C0F095800B464FF00108B3FB39
:10108000F6F39E4208F10108F9D9D04538BFD046A1
:1010900012F00103019302D1B9F1000F5ED1AA68E9
:1010A000012403E00AF1FF3A06FB04F4BAF1010F50
:1010B000F8D8B7FBF4F39E42F6D9DFF8ECA007E0CE
:1010C000B442B4FBF6F31AD3AA681C46B7FBF3F399
:1010D0001AF803B0BBF10A0F04FB137728D02B6872
:1010E000511CA96003F802B0D5E901329A42E7D356
:1010F0002846FFF799FFB4FBF6F3B442E4D2019B14
:101100009BB1B9F1000F10D02024C84509F1FF3977
:101110000BD2AB682A68591CA960D454D5E90132B6
:101120009A4214D2B9F1000FEFD103B0BDE8F08FAD
:10113000511C2B68A9604FF00D019954D5E901327B
:101140009A42CCD32846FFF76FFFAA68C7E7284624
:10115000FFF76AFFB9F1000FD7D1E6E793071AD47A
:101160002024AA68C84502F1010199D22B68A96020
:101170009C54D5E901329A4209F1FF3903D2B9F101
:10118000000FEFD18CE72846FFF74EFFAA68B9F1B0
:10119000000FE7D184E7BAF1000F0CBF3024202400
:1011A000DFE74FF0010870E788340000002900F005
:1011B00054822DE9F04FDFF8B8950C7885B00646DB
:1011C00090460D464FF00D0A10E00A2CB36800F06F
:1011D000AD803268591CB160D454D6E901329A42CC
:1011E00080F0A0802C78002C00F087800135002C46
:1011F00000F08380252CE8D1294600270D4611F800
:10120000012B2D2A00F08880302A00F088802B2ABC
:101210007AD02A2A00F09980A2F13003092B4FF0EE
:1012200000040BD804EB840402EB440415F8012FEE
:10123000A2F13003092BA4F13004F3D92E2A00F0D7
:101240009080002301E015F8012F02F0FB016829CE
:10125000F9D0252A00F07781583AD1B2202947D811
:10126000202A45D8DFE812F035014400440044004C
:10127000440044004400440044004400440043014E
:10128000130144004400440044001301440044009E
:101290004400440044004400D20044004400A20042
:1012A0004400940044004400350101209842024665
:1012B00038BF1A460292002C40F05081B80740F126
:1012C0006E81002B40F04E821C46BBF1000FC0F235
:1012D0000A827A0700F11A8207F00302022A00F05C
:1012E000EA81CDE9004759460A223046FFF7B8FEA9
:1012F00001352C78002C7FF479AF337B002B40F044
:101300001C8105B0BDE8F08F0D4611F8012B2D2A88
:1013100047F004077FF478AF47F001076EE747F026
:1013200002076BE73046FFF77FFE5BE73268591C28
:10133000B16002F803A0D6E901239342FFF449AF5C
:101340003046FFF771FEB36843E7D8F800301A1D46
:10135000C8F800206A781C682E2A05F101057FF480
:1013600070AF6A78A2F13003092B05F101054FF047
:1013700000033FF66AAF03EB830302EB430315F868
:10138000012FA2F130010929A3F13003F3D95CE761
:10139000D8F80020111DC8F8001011683046CDE9BA
:1013A00000470A22FFF75CFE0135A2E7D8F80030BB
:1013B0001A1DC8F8002017F00107D3F800B040F05C
:1013C000F080BBF1000F03D0584601F097FF0746AD
:1013D000BC4240F24381002C00F04081202205E015
:1013E000BC4200F03B81002C00F03881B1683368CA
:1013F000481CB0605A54D6E90130984204F1FF34D9
:10140000EED33046FFF710FE2022E9E7D8F800209F
:10141000131DC8F80030B36831681768581C3022B3
:10142000B060CA54D6E90123934280F0EF8032685D
:10143000581C7821B060D154D6E901329A4280F02C
:10144000E0800F2F03D93B461B090F2BFCD84FF030
:10145000805406E00F2C4FEA14137FF649AFB268B0
:101460001C46B7FBF4F319F803B0BBF10A0F04FBF9
:10147000137754D03368511CB16003F802B0D6E939
:1014800001329A42E6D33046FFF7CEFDE2E7D8F8C4
:101490000020111DC8F80010D2F800B08BEAEB72E2
:1014A000A2EBEB72092A7FF700AFDFF8C8C2012078
:1014B00011466329ACFB02E200F101004FEAD202BF
:1014C000F6DC9842024638BF1A460292002C45D1FB
:1014D000F4E6D8F80020111DC8F800101168304655
:1014E000CDE900471022FFF7BBFD013501E7D8F831
:1014F00000301A1DC8F800201C78B3680A2C00F0D0
:1015000011813268591CB160D454D6E901329A4233
:10151000FFF4EEAE3046FFF787FD0135E9E63368AC
:10152000511CB16003F802A0D6E901329A42A1D35E
:101530003046FFF779FDB2689CE7304605B0BDE85C
:10154000F04FFFF771BDB3683168581CB060CA54E2
:10155000D6E901329A42DDD20135CAE6BBF1000F6D
:1015600059DB7A0757D4B80702D5002B3FF4ADAE4C
:10157000F9073FF5AAAE94B120220299A142BFF427
:10158000A4AEB168481CB06030684254D6E901018D
:10159000814204F1FF3480F0D480002CEDD100248E
:1015A00093E69BF80030002B00F0E080B0685F46C7
:1015B000CBF101020A2B02EB070B3CD0411CB160BE
:1015C00031680B54D6E90130984226D217F8013F12
:1015D000002BEFD15C457FF68BAE202702E05C4507
:1015E0003FF486AEB2683368511CB1609F54D6E9AF
:1015F00001329A4204F1FF34F1D33046FFF714FD73
:10160000EDE73046FFF710FDB2681AE73046FFF706
:101610000BFDB3680BE7013CA5E730460292FFF7EC
:1016200003FD17F8013F002BD4D0029AB0680A2BB3
:1016300002EB070BC2D1411CB160316801F800A078
:10164000D6E901108842B9D33046CDE90232FFF71E
:10165000EBFCDDE90232B068B0E770479BF8004070
:10166000002C3FF445AE0A2CB0680ED03368421C03
:10167000B2601C54D6E90130984214D21BF8014FD5
:10168000002C3FF435AE0A2CF0D13368421CB26016
:1016900003F800A0D6E901309842E7D33046FFF7BF
:1016A000C3FCB068E2E73046FFF7BEFC1BF8014F11
:1016B000002CD8D11CE6002B7FF413AE8CB1302265
:1016C0000299A142BFF40DAEB168481CB060306809
:1016D0004254D6E90101814204F1FF343BD2002C8F
:1016E000EED10024FDE5B1684A1CB26032682D20BD
:1016F0005054D6E901219142CBF1000BFFF4ECAD3F
:1017000030460393FFF790FC039BE5E5B1684A1C64
:10171000B26032682B205054D6E901219142FFF487
:10172000DBADEDE73268591CB16002F803A0D6E9E1
:1017300001239342FFF4E5AE3046FFF775FCB36832
:10174000DFE630460393FFF76FFC039B2022002C5B
:101750007FF413AF23E730460393FFF765FC039B49
:101760003022BCE7F9073FF5B0AD18E79B4631E7FB
:1017700088340000CDCCCCCCFFF7FEBB2DE9F04186
:10178000058A0331043D4E198046B6FBF5F6FFF796
:101790000FFCA0B3F6B24FF48073013E0446C5803F
:1017A000C0F8008083802BD00346002508E06279D2
:1017B000AE4202F1010262713860C0F800801FD0B1
:1017C00040461F46FFF7F4FB013503460028EED1E3
:1017D0006779791E17D02246013399421268FBD1EE
:1017E000D2F800805FB12668002501E034463668F3
:1017F000214601354046FFF701FCAF42F6D80024F0
:101800002046BDE8F08120682146FFF7F7FBF6E7A8
:1018100004300121FFF774BB2DE9F041012104469A
:101820000430FFF77BFB10F0FF0301D0BDE8F0812F
:101830006779791E16D02246013399421268FBD18E
:10184000D2F80080002FF1D02668002501E0344650
:101850003668214601354046FFF7D0FBAF42F6D847
:10186000BDE8F08120682146BDE8F041FFF7C6BB26
:101870002DE9F8430546C6884079144606FB00F278
:10188000043A04EB030C1F1D624538BFD41ABE4254
:101890008846B7FBF6F106FB117002D801392D68B6
:1018A000FCD1371AA74228BF27469CB14FF0000948
:1018B0000430E41B28443A4608EB090101F008FD16
:1018C000A642B9442D6837464FF0000028BF27468E
:1018D000002CEDD1BDE8F8832DE9F8430546C68814
:1018E0004079144606FB00F2043A04EB030C1F1D7A
:1018F000624538BFD41ABE428846B7FBF6F106FBF4
:10190000117002D801392D68FCD1371AA74228BFBF
:1019100027469CB14FF0000904302918E41B3A46D1
:1019200008EB090001F0D4FCA642B9442D68374603
:101930004FF0000028BF2746002CEDD1BDE8F8830A
:10194000064A074B10B5002414701C60BFF35F8F6C
:101950000449054800F032F8204610BD80060020FA
:1019600084060020A43400007806002008B500207A
:10197000FFF7A6FAF1EE103A23F09F03E1EE103ADA
:10198000BFF35F8F054B4022C3F884210020FFF78F
:101990009FFA20BF40BF20BF08BD00BF00E100E0AC
:1019A0008268002393608268136182685361826851
:1019B000D3608268536082681360704701600B686F
:1019C00043604A68934204BF00234360704700BFEE
:1019D00030B585B0047845688DF80040D0E9024004
:1019E000064A074B039053F82130019552F8211015
:1019F0008DF808406846984705B030BD880600203D
:101A00009006002030B585B0047845688DF8004018
:101A1000D0E90240064A074B039053F82130019564
:101A200052F821108DF808406846984705B030BD3F
:101A300088060020900600202DE9F047DFF874802A
:101A400090F800E04B7F08F80E300D46074616462A
:101A50000FCD88B06C460FC495E80F003D78DFF8D5
:101A60005890DFF858C018F8055049F82E6084E8FF
:101A70000F004CF82E00CDF810E05DB1002E0B4A9F
:101A8000694607F1040008BF324600F015FF08B0B0
:101A9000BDE8F087002E064A694607F10C0008BF32
:101AA000324600F06FFC08B0BDE8F087D1190000A5
:101AB000051A000054070020900600208806002028
:101AC000034B187810B901221A70704785207047AF
:101AD000980600202DE9F84F164DDFF85C8081460E
:101AE00000264FF0010A03E0FFF7F2F9A5431BD0EF
:101AF000F7B200200AFA07F4FFF7E2F92C424FF0A0
:101B0000000006F10106EFD0D8F8003014EA030B0C
:101B1000EAD11C43584689F80070C8F80040FFF726
:101B2000D7F95846BDE8F88F4FF0040B5846BDE88A
:101B3000F88F00BFFFFF0F009C060020D9B1D2B183
:101B40000123834010B4C3F3130484B10D4C246803
:101B5000234212D0C00000F1804303F5F833002087
:101B6000C3F81015C3F814255DF8044B704707201F
:101B70005DF8044B70470E20704708205DF8044B59
:101B8000704700BF9C060020012202FA00F3C3F355
:101B900013021AB1054A1268134204D0044A002005
:101BA000C2F8043570470820704700BF9C0600202B
:101BB00000F00140014B1B68184700BFA006002041
:101BC00038B50C4B984213D100200D46FFF778F939
:101BD000094B1C7924B10020FFF77AF9112038BD98
:101BE000012220461D601A71FFF772F9204638BDA8
:101BF000002038BD00200040A0060020034B984282
:101C000003D1034B00221A601A7170470020004074
:101C1000A00600202DE9F041644B1A6888B002BB91
:101C2000634F97F82E30002B29D1624B1A685AB1B6
:101C300000221A601B68039302218DF814103B6880
:101C400003993A7405A898475B4B1C68002C30D068
:101C500000221A601B680593059B3A7408B0BDE822
:101C6000F081534F00221A60196897F82E300091C6
:101C70000099002B4ED097F82F30002B63D14F4B9B
:101C80001A68002AD1D000211960186897F82D2011
:101C90007B8B01909342019894B263D874D0434BEC
:101CA000474A002119601B680293012302991360BF
:101CB000BBE77E69002ED1D04FF000480125B6FA6F
:101CC00086F101F146039B0003F1804202F5E042F8
:101CD000A3F58C73D2F800E083F0040028FA01F138
:101CE000C0F3800CDB0805A826EA0106BEF1000F50
:101CF0000BD01460126804928DF818308DF81450CF
:101D00003B688DF819C0049A9847002ED7D108B0C7
:101D1000BDE8F081FA68786839898DF8143006904A
:101D2000ADF81C10002A2CD02648398B7A6001228D
:101D3000FB607983398102603B6805A898470023DE
:101D400087F82F306DE7FB68786839898DF81420A3
:101D50000690ADF81C10A3B1398B7B60FA607983D3
:101D60003981E9E7398978681B1B9BB289B2154C28
:101D70007B83C91A00EB4101C4F82C16C4F8302645
:101D80008DE700233B74D7E7FB684BB10D4879839F
:101D9000012187F82F10C0F82C36C0F830267EE7D6
:101DA00001227B8387F82F2079E700BF0471004070
:101DB000A80600201071004014710040007100401E
:101DC0000470004000700040234B93F82C20002A40
:101DD00040D170B4214D04781960C5F8F0454478BD
:101DE0001F49C5F8F4456FF000441A74C678C5F869
:101DF000084385B00A60096803911A49039C0A6088
:101E00000968194C0291029922608178206801903A
:101E10004901164883F82D205A6183F82F20C9B252
:101E20000122019C83F82E6083F82C2080F8071390
:101E30008021016093F82E300221C5F804130BB104
:101E4000C5F80423054B01220020C3F8002505B086
:101E500070BC704708207047A80600200070004042
:101E600004710040007100401471004000E100E086
:101E7000F0B4254C237C002B43D100F10C0604EB7D
:101E800046031B79002B36D04B788A780D780F7972
:101E90001B01120202F4E06203F030031343CA781C
:101EA00005F003052B4312034D7902F480523F04E1
:101EB000134307F4E0272D058A793B4305F4801589
:101EC0002B43050104EB4604120605F18045CE794B
:101ED000267105F5E04502F080720E7A66711343B3
:101EE000C5F81835CB79097AC5F81415C5F8103539
:101EF0000020F0BC704794F82D30013384F82D3069
:101F0000C2E71120F0BC7047A8060020044B054A28
:101F100093F82E00044B002814BF10461846704753
:101F2000A80600200070004004700040F0B42D4D61
:101F30002D4B1222C5F808231C7C022C82B04BD0FA
:101F40001A7C012A24D093F82E20586002270124FD
:101F50000026C5F804731C74DE6019816AB9234B2E
:101F6000C5F82C06C5F830161A601B680193019B52
:101F70002C60104602B0F0BC704793F82D20C5F8D5
:101F80002C0630465983C5F8302602B0F0BC7047A5
:101F9000DA6832B102231120C5F8043302B0F0BC74
:101FA000704793F82E20D86019836AB90F4A1368D6
:101FB000002BFCD00023136012680A4B0092009A99
:101FC000C3F82C06C3F83016064B02220020C3F8D3
:101FD000042302B0F0BC70471120C5F8042302B0FE
:101FE000F0BC704700700040A8060020007100405F
:101FF000F0B507793A4E07EB470406EB840583B04A
:102000002B7A002B68D1A4004FEA470C32514A6862
:102010006A6042797AB11A461D469B00046803F54E
:10202000A0730132E550E35844790193D3B29C4246
:10203000DDF804E0F1D80268CB7842F30734002CD5
:102040004FEA123240DB04F1604404F561445B0165
:10205000DBB284F80033026842F30733002B4FEA07
:10206000123409DB1F4D01225B0904F01F0402FA40
:1020700004F445F823400268D2F804454B7824F074
:10208000030403F003032343C2F8043504688B7888
:10209000D4F8082503F0030322F003021343C4F825
:1020A000083500680B78D0F81025674422F00F023D
:1020B00003F00F0306EB870613430121C0F8103528
:1020C0000020317203B0F0BD074C02F00F025B013B
:1020D0001444DBB22376BEE7082003B0F0BD00BF96
:1020E000D806002000E100E0FCEC00E00368054AAF
:1020F00001211960037903EB430302EB83030222FE
:102100001A727047D8060020F0B4076840F2011533
:10211000D7F800428D4024EA0504C7F8004205685C
:1021200082B0D5F800429DF8186023434FF4803404
:10213000C5F800328C409EB18B00056803F5A07392
:102140000026EE50ED5803680195019DC3F8044345
:10215000036801F5A87143F8212002B0F0BC704774
:102160000368C3F80843F3E72DE9F041114CDFF8A9
:102170004C80114E82B000254FF48037236807FA57
:1021800005F101357BB1D8F80423A4F500401142D4
:102190004FF0000380B206D0236023680193D6E994
:1021A0000031019A9847042D04F10404E6D102B0ED
:1021B000BDE8F08140810040D8060020008000404A
:1021C00030B56E4AD2F8043399058BB068D5D2F891
:1021D0002431002B64D00023C2F82431D2F82431FA
:1021E00001934FF40171664B0198C2F8081393F8FC
:1021F000291009B901215160604902228DF8182087
:10220000D1F88024C1F880249869D9680992002403
:102210000025CDE90710C3E90645D3E9001206A859
:102220009047564AD2F81C31C3B1554B5869196AC8
:1022300088426AD993F8281001F0FF00002964D180
:10224000C2F81C01D2F81C11039103999C68186A0A
:10225000196A205C01311962C2F81C05474AD2F89C
:102260004431DBB10021464BC2F84411D2F844019D
:1022700093F829100090009809B1012111609A6922
:1022800062B1586AD96800229A610122CDE907102B
:102290008DF8182006A8D3E9001290470BB030BD86
:1022A000364AD2F804335B07BBD5D2F80831002B8D
:1022B000B7D0334B996900293ED00021C2F80811EC
:1022C000D2F8081104910499D868596AD2F81825EF
:1022D00042545A6A996901325A625A6A8A42A0D1B2
:1022E000DA69002A31D0DD685C6A18699A610121D7
:1022F0000022D860DA615A628DF81810CDE90754CF
:10230000D3E9001206A890478BE71C4A0021C2F8C7
:102310001C11D2F81C210292029A5A69002A9DD0FF
:1023200058699A688DF8181008905961079206A8A4
:10233000D3E90012904791E7C2F80811D2F80801DA
:1023400005900598D2F81825C7E793F8292012B907
:102350000A4A01215160094A4FF40171C2F8081379
:10236000596ADA6808910024012007928DF8180054
:10237000D3E900129C6106A8904752E70020004074
:10238000E80600202DE9F041DFF8E48106792C23EE
:1023900003FB068382B093F82A30002B40F09E8026
:1023A00005460C4600686D491746FFF709FC0028F2
:1023B00040F090802368591C19D01F2B4FF0010268
:1023C0008ABF67494FF0A04103F01F0302FA03F3ED
:1023D000C1F8083523681F2B86BF03F01F03604A2E
:1023E0004FF0A04203F5E073032142F82310636825
:1023F0005A1C0BD01F2B86BF03F01F03584A4FF007
:10240000A04203F5E073002142F823102B68A26973
:10241000C3F82425217D637D2A680B43C2F86C35FF
:10242000D4E900122B68C3F81425C3F80C15237DDA
:10243000012B5FD02C2303FB06F308EB030257604C
:10244000226948F803202A6897B30021237FC2F845
:102450001C11D2F81C2100922A68009FC2F8441176
:10246000D2F844112A6801913E4C0199C2F8044304
:102470002A6842F3073100294FEA123232DB01F1B8
:10248000604101F561415B01DBB281F800332A68EC
:1024900042F30733002B4FEA123109DB324C0122A1
:1024A0005B0901F01F0102FA01F144F823102A68C8
:1024B0002C2303FB0686012400230421C2F8001507
:1024C000C6E9063386F82A4086F82930736102B0DF
:1024D000BDE8F081112002B0BDE8F081082002B013
:1024E000BDE8F081214902F00F025B011144DBB22B
:1024F0000B76CCE7A368591C0BD01F2B86BF03F0CB
:102500001F0317494FF0A04103F5E073002241F883
:102510002320E3685A1C1AD01F2B8ABF10494FF0A2
:10252000A04103F01F03012202FA03F3C1F80835AA
:10253000E3681F2B88BF03F01F0303F5E0738CBF14
:1025400007494FF0A041032241F82320E3682A689D
:10255000A168C2F80835C2F810156BE7C121000068
:10256000000300508000020000E100E0FCEC00E00D
:10257000E8060020F8B53E4F047902682C2303FBDF
:10258000047300215B68C2F80015C3B10368394ABF
:10259000C3F80823036843F30732002A4FEA1331D4
:1025A0000EDB5209344D2032012301F01F0103FAE2
:1025B00001F145F82210BFF34F8FBFF36F8F03680F
:1025C000D3F80C65D3F81455D3F80825D3F81015B3
:1025D0004FF0FF3CC3F814C5C3F80CC5036866454B
:1025E000C3F808C5C3F810C50CD01F2E86BF06F06F
:1025F0001F06224B4FF0A04306F5E0764FF0020C89
:1026000043F826C06E1C0BD01F2D86BF05F01F059A
:102610001A4B4FF0A04305F5E075022643F82560FC
:102620004D1C0BD01F2986BF01F01F01134B4FF02B
:10263000A04301F5E071022543F82150531C0BD053
:102640001F2A86BF02F01F020C4B4FF0A04302F579
:10265000E072022143F822100068FFF7CFFA2C2322
:1026600003FB0474002384F82A306360F8BD00BFC4
:10267000E80600208402020000E100E000030050B0
:102680002DE9F041314E05792C2303FB0563044607
:10269000586984B000284CD15A619960186283F857
:1026A00028002268C2F81C01D2F81C11226802918D
:1026B0000121029F91602268D3F808C0C2F81C0172
:1026C000D2F81C11019101991F6A196A1CF8077050
:1026D00001311962C2F81C755A6812B104B0BDE824
:1026E000F0815F691A6A216897421BD9864602E029
:1026F00093F828200ABBD1F81C21002AF8D0C1F891
:102700001CE1D1F81C210392039AD3F820801A6AA5
:102710001CF8088001321A62C1F81C851A6A9742B7
:10272000E9D82168D1F81C31002BFBD00123CB6004
:1027300004E0112004B0BDE8F0810F202C2303FB3E
:10274000056500236B6104B0BDE8F081E806002058
:1027500030B5574BD3F824218BB0002A75D0002216
:10276000C3F82421D3F82421049202228DF81820E2
:10277000049AD3F880144F4AC3F880140991D3F80F
:102780003C15D3680891002400250793C2E906454B
:102790001168536806A89847454BD3F8442152B1B5
:1027A0000021444AC3F84411D3F8440191690390CD
:1027B0000398002938D13E4BD3F820215AB100218B
:1027C000C3F82011D3F8202102920120394A029C3B
:1027D000D8605069D8B9364BD3F85821AAB1002136
:1027E000C3F85811D3F85801324A01900198506942
:1027F00058B1D3F84C05936808908DF818105161C2
:10280000079306A8D2E9001398470BB030BDD3F860
:102810004C05936808908DF818105161079306A82D
:10282000D2E900139847D6E7D3F83C35D16808932E
:1028300000240025012307918DF81830C2E90645D0
:10284000D2E9001306A89847B5E7D3F8101100297C
:10285000A2D0C3F81021D3F810111648059105999C
:102860008469D3F83C15A14296D1C469A4B1D3F8C8
:102870000052846125F02005C3F80052D0E90343DB
:10288000C26101220891C3600168436807948DF812
:10289000182006A898477FE7C26884610123CDE924
:1028A00007218DF81830D0E9001306A8984773E780
:1028B00000200040180700202DE9F0430779824EE0
:1028C00007EBC70306EB830387B093F82030002B98
:1028D00040F0B98004460D4600687C499046FFF7F9
:1028E0006FF9002840F0AB802B68591C4FEAC709EC
:1028F00019D01F2B4FF001028ABF75494FF0A0413C
:1029000003F01F0302FA03F3C1F808352B681F2BED
:1029100086BF03F01F036E4A4FF0A04203F5E07339
:10292000032142F823106B685A1C0BD01F2B86BF63
:1029300003F01F03664A4FF0A04203F5E073002145
:1029400042F823102368AA69C3F82425297D6A7DEB
:1029500023680A43C3F86C25D5E900312268C2F820
:102960000C35C2F814152B7D012B78D009EB07022A
:1029700006EB8203C3F804802B6946F82230B8F1D5
:10298000000F4BD021682B7F524D0022C1F810213F
:10299000D1F8101101912168DDF804C0C1F820219F
:1029A000D1F8201102912168DDF808C0C1F8242176
:1029B000D1F8241103912168DDF80CC0C1F844213D
:1029C000D1F8441104912168DDF810C0C1F85821F4
:1029D000D1F85811226805910599C2F8045322686C
:1029E00042F3073100294FEA123230DB01F1604136
:1029F00001F561415B01DBB281F80033226842F3EB
:102A00000733002B4FEA123109DB334D01225B09FA
:102A100001F01F0102FA01F145F8231022684F442A
:102A200006EB8706002301240821C2F80015C6E939
:102A3000063386F82040736107B0BDE8F0831120AB
:102A400007B0BDE8F083082007B0BDE8F083234954
:102A500002F00F025B011144DBB20B76CEE7AB68EC
:102A6000591C0BD01F2B86BF03F01F0318494FF0D2
:102A7000A04103F5E073002241F82320EB685A1CC3
:102A80001AD01F2B8ABF12494FF0A04103F01F0339
:102A9000012202FA03F3C1F80835EB681F2B88BF47
:102AA00003F01F0303F5E0738CBF09494FF0A04109
:102AB000032241F82320EB682268A968C2F8083590
:102AC000C2F8101552E700BF180700205127000078
:102AD000000300501003420000E100E0FCEC00E0C5
:102AE0002DE9F0410579564C05EBC50304EB830352
:102AF00001465B68006882B0EE00C3B1514BC0F87C
:102B000008330B6843F30732002A4FEA13330EDB16
:102B10005209DFF838C12032012703F01F0307FAFA
:102B200003F34CF82230BFF34F8FBFF36F8F72194E
:102B300004EB8202D0F80032926923F02003C0F83F
:102B4000003242B10023C0F84431D0F84431009340
:102B50000123009A43600023C0F85831D0F858315F
:102B600001937319012204EB8303019FC2609A69E8
:102B7000D0F85831002BFBD01AB1D0F84431002BDB
:102B8000F6D00023C0F800350B684FF0FF38D3F8BB
:102B90000CE5D3F814C5D3F80825D3F81075C3F89D
:102BA0000C85C3F814850B68C645C3F80885C3F8BF
:102BB00010850CD0BEF11F0F86BF0EF01F0E2249EC
:102BC0004FF0A0410EF5E07E022341F82E30BCF11B
:102BD000FF3F0CD0BCF11F0F86BF0CF01F0C1A4931
:102BE0004FF0A0410CF5E07C022341F82C30791C19
:102BF0000BD01F2F86BF07F01F0713494FF0A041CE
:102C000007F5E077022341F82730531C0BD01F2A29
:102C100086BF02F01F020C494FF0A04102F5E0729E
:102C2000022341F82230FEF7E9FF354404EB850426
:102C3000002384F82030636002B0BDE8F08100BF5B
:102C400018070020100342000003005000E100E0DC
:102C5000F0B401F06044B4F1005F82B02CD105798A
:102C6000274E05EBC50406EB840403466069EF00BC
:102C700000283ED16261A1601A68C2F82001D2F832
:102C800020C11A68CDF804C0DDF804C0C2F85801AC
:102C9000D2F8582100921A68DDF800C0D4F814C0A8
:102CA000C2F84415C2F848C51A68012191606268EB
:102CB00032B102B0F0BC7047102002B0F0BC7047D7
:102CC0001A6800E0C8B9D2F82011D2F858010029DA
:102CD000F8D090B90121D1601B68D3F85821002A9F
:102CE000FBD07B1906EB830300225A6102B0F0BCD3
:102CF0007047112002B0F0BC70470F20F1E700BF11
:102D000018070020704700BF037803B1704730B543
:102D1000042183B004464068FFF708F900282DD14C
:102D2000184B1948194D1A492A68C01AC0080004DE
:102D300040F003000190FDF73BFE63680198B3F992
:102D400000201449FDF734FE63680198B3F90220AE
:102D50001149FDF72DFE63680198B3F904200F496E
:102D6000FDF726FE63680E49B3F906200198FDF7CA
:102D70001FFE2B6801332B6003B030BDFEF758F8FF
:102D8000CEE700BF90360000C03600003C070020B0
:102D9000D8340000F0340000FC3400000835000096
:102DA0001435000000B587B0FEF78AFE50BB002145
:102DB0001C4B05911C4A1D48049304A9FFF718F900
:102DC00060BB1B4B1B4AD3F8103518480021DBB2FF
:102DD000DA4000910123FFF797F91448FFF786F9CD
:102DE000FFF794F8024614480392FEF773FE039A25
:102DF00080B9114B11491878FEF7A0FE28B907B029
:102E00005DF804FBFEF714F8D1E7FEF711F807B000
:102E10005DF804FBFEF70CF8039AEAE7FEF708F802
:102E2000CFE700BF00000306052D00007835000045
:102E30000080004000A86100500700204081004051
:102E400008B5054B1878FEF79FFE00B908BDBDE830
:102E50000840FDF7EDBF00BF5007002010B53A4B0A
:102E600093E807008CB06C4603C403F10C01227098
:102E700007C903AC03C403F11801227007C906ACEB
:102E800003C42433227093E8070009AB03C32F491E
:102E90002F481A70FEF798FF08BB69460020FEF71E
:102EA000E7FF20BB03A90120FEF7E2FF38BB06A91C
:102EB0000220FEF7DDFF50BB09A90320FEF7D8FF73
:102EC00068BB24480421FFF731F800282FD122489D
:102ED0000421FFF72BF8002831D10CB010BDFDF70D
:102EE000A7FF69460020FEF7C3FF0028DAD0FDF7F0
:102EF0009FFF03A90120FEF7BBFF0028D7D0FDF7F5
:102F000097FF06A90220FEF7B3FF0028D4D0FDF7F3
:102F10008FFF09A90320FEF7ABFF0028D1D0FDF7F2
:102F200087FF0C480421FFF701F80028CFD0FDF7F8
:102F30007FFF09480421FEF7F9FF0028CDD0FDF7F7
:102F400077FF0CB010BD00BF44350000092D000014
:102F5000743500004007002048070020002108B514
:102F60000846FDF7F5FAD8B9FDF7E2FAFEF7E8FCF6
:102F7000C8B9FFF773FFFFF715FFFFF761FF0B48B5
:102F80000B4B0C49C01AC008000440F00300FDF7C9
:102F90004FFCFEF7EBFCFDF729FB0028FBD1F8E71F
:102FA000FDF746FFE0E7FDF743FFE2E7C03600002C
:102FB000903600002035000010B4954B1B685C1C57
:102FC00000F0C480934A082B12682ED0904B1B68E7
:102FD000082B7ED0591C21D08E4A1268082B00F095
:102FE000D7808D4AD2F8883043F47003C2F8883015
:102FF000BFF34F8FBFF36F8F4FF01023D3F8002232
:10300000002AC0F2D380D3F80432002BC0F2CE8065
:10301000824B834A1A605DF8044B7047814A824BA9
:1030200012681B78C2F30312D8E7032A40F2A1808A
:10303000784A1268082BC9D1032AC7D84FF08052AA
:103040007A4BD2F80414C3F82015D2F80814C3F848
:103050002415D2F80C14C3F82815D2F81014C3F8AC
:103060002C15D2F81414C3F83015D2F81814C3F87C
:103070003415D2F81C14C3F84015D2F82014C3F844
:103080004415D2F82414C3F84815D2F82814C3F80C
:103090004C15D2F82C14C3F85015D2F83014C3F8DC
:1030A0005415D2F83414C3F86015D2F83814C3F8A4
:1030B0006415D2F83C14C3F86815D2F84014C3F86C
:1030C0006C15D2F84424C3F87025514B1B68082BAB
:1030D00080D1504B1A68032A83D8554B9B5C13B19F
:1030E000544B55491960554B9B5C6BB1484B544947
:1030F0001B68484AFB20C1F81805082B12687FF4AA
:1031000069AF032A3FF66DAF4E4B9B5CA3B14E4BAC
:103110004E4C196820683F4AA3F5947320F00F00C5
:103120001B68126801F00F010143082B21607FF436
:1031300051AF032A3FF655AF454B9B5C5BB3344B15
:10314000444A1B684FF40071116043E7364A354B1F
:1031500012781B68082A4FEA13137FF437AF13F075
:103160000C0F06D02F4A304B12681B78C2F30312A3
:1031700060E7274B1B684FF080420021581CC2F8C3
:103180000C11C2F81011C2F838157FF451AFE9E7FD
:10319000032A3FF626AF4FF08043D3F80024D2072E
:1031A00044BF6FF00102C3F800241AE72A4A012342
:1031B000C2F80435D2F80034002BFBD04FF01023B6
:1031C0001221254AC3F80012D2F80034002BFBD09C
:1031D0004FF010231221204AC3F80412D2F8003411
:1031E000002BFBD000231C49C2F80435D1F8003471
:1031F000002BFBD0BFF34F8F0749184BCA6802F46E
:10320000E0621343CB60BFF34F8F00BFFDE700BF09
:10321000300100103401001000ED00E01C0000201F
:103220000090D003E80F00F0E00F00F000C0004075
:10323000803500008C560040488103008035000036
:1032400000F000408035000058020010E40E0040FD
:10325000803500004096024000E001400400FA057D
:1032600008B5074B044613B10021AFF30080054BAE
:103270001868836A03B19847204600F047F800BFFA
:10328000000000008836000070B50D4D0D4C641B29
:10329000A4100026A64209D10B4D0C4C00F038F8C2
:1032A000641BA4100026A64205D170BD55F8043B4E
:1032B00098470136EEE755F8043B98470136F2E7A8
:1032C000800000208000002080000020840000207A
:1032D0000A44914200F1FF3300D1704710B511F854
:1032E000014B03F8014F9142F9D110BD024403464E
:1032F000934200D1704703F8011BF9E7034613F826
:10330000012B002AFBD1181A01387047FEE700BFD5
:10331000F8B500BFF8BC08BC9E467047F8B500BFC2
:10332000F8BC08BC9E467047FFFFFFFFFFFFFFFF92
:10333000FFFFFFFFFFFFFFFF000000000000000095
:103340000000D60106010000E10300004D0400006A
:10335000DD030000756172745F6C6F675F626163AB
:103360006B656E64000000004261636B656E6473A0
:1033700020666C7573686564000000006170700001
:10338000DC0500207F0000005C0600201B5B313B59
:1033900033316D0025734C6F67732064726F7070EA
:1033A0006564202825642925730D0A001B5B306D98
:1033B00000000000257300003C25733E2025733A71
:1033C000200000000D0A00002025303278000000A7
:1033D000202020007C000000256300001B5B313BA7
:1033E00033306D001B5B313B33326D001B5B313B77
:1033F00033336D001B5B313B33346D001B5B313B62
:1034000033356D001B5B313B33366D001B5B313B4D
:1034100033376D006572726F720000007761726EF3
:10342000696E6700696E666F000000006465627512
:1034300067000000AC330000DC3300008C33000078
:10344000E4330000EC330000F4330000FC330000F0
:10345000043400000C3400000000000014340000AC
:103460001C340000243400002C34000046617461D8
:103470006C206572726F720053797374656D20727F
:1034800065736574000000003031323334353637EF
:1034900038394142434445467077725F6D676D74B9
:1034A000000000009036000090360000040000008C
:1034B00050504900505253005341414443000000D2
:1034C00054494D455200000055415254000000003F
:1034D0005541525445000000414443206576656ED5
:1034E00074206E756D6265723A20256400000000DC
:1034F00041444331203D20256400000041444332D3
:10350000203D20256400000041444333203D202518
:103510006400000041444334203D20256400000045
:1035200053414144432048414C2073696D706C65A0
:10353000206578616D706C65207374617274656468
:103540002E0000000000000002000001000000004A
:103550000000000002000002000000000000000067
:103560000200000300000000000000000200000450
:103570000000000001000600008000400004000080
:1035800001000000002020202020202020202828CA
:103590002828282020202020202020202020202013
:1035A0002020202020881010101010101010101053
:1035B0001010101010040404040404040404041083
:1035C0001010101010104141414141410101010111
:1035D00001010101010101010101010101010101DB
:1035E00010101010101042424242424202020202E7
:1035F00002020202020202020202020202020202AB
:10360000101010102000000000000000000000005A
:1036100000000000000000000000000000000000AA
:10362000000000000000000000000000000000009A
:10363000000000000000000000000000000000008A
:10364000000000000000000000000000000000007A
:10365000000000000000000000000000000000006A
:10366000000000000000000000000000000000005A
:10367000000000000000000000000000000000004A
:1036800000000000000000002000002000000000FA
:10369000B034000000000000B4340000000000005E
:1036A000B834000000000000C0340000000000003A
:1036B000C834000000000000D0340000000000000A
:1036C0007C33000000000303983400000000000079
:1036D00048330000000000005433000014000020B4
:1036E000EC000020B4010020BC010020F400002008
:0436F00018000000BE
:0836F4004CCBFF7F0100000038
:1036FC0000000000002000400000000000200040FE
:10370C000000000000000000FF0000000090D0034B
:10371C00000000000000000000000000000000009D
:10372C00000000000000000000000000000000008D
:10373C00000000000000000000000000000000007D
:10374C00000000000000000000000000000000006D
:10375C00000000000000000000000000000000005D
:10376C00000000000000000000000000000000004D
:08377C0025020000010200001B
:04000003000002BD3A
:00000001FF
